S015000050574D5F6C69627265726961732E73726563FF
S11300000C9434000C9451000C9451000C94510045
S11300100C9451000C9451000C9451000C94510018
S11300200C9451000C9451000C9451000C94510008
S11300300C9451000C9451000C9451000C945100F8
S11300400C9451000C9451000C9451000C945100E8
S11300500C9451000C9451000C9451000C945100D8
S11300600C9451000C94510011241FBECFEFD8E022
S1130070DEBFCDBF11E0A0E0B1E0E2EFF7E002C0E7
S113008005900D92A230B107D9F721E0A2E0B1E0CA
S113009001C01D92A430B207E1F70E940B020C9438
S11300A0F7030C940000F90134B1326034B91092B2
S11300B0800010928100892B31F4A0E8B0E08C918B
S11300C080688C9305C0A0E8B0E08C91806C8C9320
S11300D06115710559F4A0E8B0E08C9181608C93AE
S11300E0A1E8B0E08C9188608C9352C061307105B6
S11300F059F4A0E8B0E08C9182608C93A1E8B0E060
S11301008C9188608C9344C06230710559F4A0E8E6
S1130110B0E08C9183608C93A1E8B0E08C9188600E
S11301208C9336C06330710531F4A0E8B0E08C9153
S113013081608C932DC06430710531F4A0E8B0E087
S11301408C9182608C9324C06530710531F4A0E8F1
S1130150B0E08C9183608C931BC06630710559F4B8
S1130160A0E8B0E08C9182608C93A1E8B0E08C911F
S113017088618C930DC06730710551F4A0E8B0E03C
S11301808C9182608C93A1E8B0E08C9180618C9317
S113019040345105E1F03CF44115510561F048301B
S11301A0510579F025C0411581E05807B1F041159A
S11301B05440C9F01DC0A1E8B0E08C9181608C93DB
S11301C017C0A1E8B0E08C9182608C9311C0A1E8C3
S11301D0B0E08C9183608C930BC0A1E8B0E08C916B
S11301E084608C9305C0A1E8B0E08C9185608C9309
S11301F0F0938700E0938600089524B1246024B925
S1130200892B31F4E0E8F0E08081806280830895F6
S1130210E0E8F0E080818063808308959093890012
S113022080938800089590938B0080938A000895AA
S113023010927C0010927A00009731F4ECE7F0E021
S113024080818064808307C0019729F4ECE7F0E0A3
S11302508081806C80836115710531F4ECE7F0E0F6
S113026080818062808308C06130710529F4ECE7E5
S1130270F0E080818F7D80834230510531F4EAE7DC
S1130280F0E080818160808335C04430510531F4D1
S1130290EAE7F0E08081826080832CC04830510519
S11302A031F4EAE7F0E080818360808323C0403149
S11302B0510531F4EAE7F0E08081846080831AC05C
S11302C04032510531F4EAE7F0E0808185608083B3
S11302D011C04034510531F4EAE7F0E080818660D2
S11302E0808308C04038510529F4EAE7F0E08081B2
S11302F087608083EAE7F0E0808188608083808182
S11303008068808308959C01ECE7F0E09081907F01
S113031090832115310521F48081807F808335C04D
S11303202130310531F4ECE7F0E080818160808395
S11303302CC02230310531F4ECE7F0E0808182609A
S1130340808323C02330310531F4ECE7F0E0808171
S1130350836080831AC02430310531F4ECE7F0E087
S113036080818460808311C02530310531F4ECE74D
S1130370F0E080818560808308C02630310529F44F
S1130380ECE7F0E0808186608083EAE7F0E080813A
S11303908064808380917A0086FDFCCF809179000F
S11303A0089587B18F7887B988B1806788B908952F
S11303B0CF92DF92EF92FF921F93CF93DF93162F8A
S11303C0EA01682F70E080E090E00E94FC026B017B
S11303D07C01612F70E080E090E00E94FE029B01AE
S11303E0AC01C701B6010E945B026B017C01BE0136
S11303F080E090E00E94FC02A70196010E948A031B
S11304000E94CD02CB01DF91CF911F91FF90EF901D
S1130410DF90CF9008950E94D10140E850E060E061
S113042070E080E090E00E94180188E391E09093EE
S1130430030180930201209102013091030140E005
S113044054E066E070E080E090E00E94530080E0B9
S113045090E00E94FD0080910001843099F484E0D2
S113046090E00E94830140910201509103016FEFDB
S11304700E94D8010E940E01809100018F5F809339
S11304800001E9CF80910001853089F485E090E096
S11304900E94830140910201509103016FEF0E9479
S11304A0D8010E94130184E080930001D4CF84E03A
S11304B080930001D0CF0E946F020C9450030E94DD
S11304C0490358F00E94420340F029F45F3F29F0A9
S11304D00C94390351110C9484030C943F030E942F
S11304E0610368F39923B1F3552391F3951B550BDD
S11304F0BB27AA2762177307840738F09F5F5F4FF3
S1130500220F331F441FAA1FA9F335D00E2E3AF031
S1130510E0E832D091505040E695001CCAF72BD049
S1130520FE2F29D0660F771F881FBB1F261737079A
S11305304807AB07B0E809F0BB0B802DBF01FF27CC
S113054093585F4F3AF09E3F510578F00C9439036D
S11305500C9484035F3FE4F3983ED4F38695779537
S11305606795B795F7959F5FC9F7880F911D969585
S1130570879597F90895E1E0660F771F881FBB1FE1
S1130580621773078407BA0720F0621B730B840B8E
S1130590BA0BEE1F88F7E09508950E94690388F06E
S11305A09F5798F0B92F9927B751B0F0E1F0660F33
S11305B0771F881F991F1AF0BA95C9F714C0B13074
S11305C091F00E948303B1E008950C948303672F94
S11305D0782F8827B85F39F0B93FCCF386957795A3
S11305E06795B395D9F73EF490958095709561958C
S11305F07F4F8F4F9F4F0895E89409C097FB3EF4B7
S113060090958095709561957F4F8F4F9F4F99235B
S1130610A9F0F92F96E9BB279395F69587957795D9
S11306206795B795F111F8CFFAF4BB0F11F460FF99
S11306301BC06F5F7F4F8F4F9F4F16C0882311F0F1
S113064096E911C0772321F09EE8872F762F05C005
S1130650662371F096E8862F70E060E02AF09A95A0
S1130660660F771F881FDAF7880F9695879597F995
S1130670089597F99F6780E870E060E008959FEF20
S113068080EC089500240A94161617061806090625
S1130690089500240A9412161306140605060895F4
S11306A0092E0394000C11F4882352F0BB0F40F47C
S11306B0BF2B11F460FF04C06F5F7F4F8F4F9F4FBC
S11306C0089557FD9058440F551F59F05F3F71F03E
S11306D04795880F97FB991F61F09F3F79F08795A5
S11306E00895121613061406551FF2CF4695F1DF2E
S11306F008C0161617061806991FF1CF86957105BE
S1130700610508940895E894BB2766277727CB01F1
S113071097F908950E949D030C9450030E9442038C
S113072038F00E94490320F0952311F00C9439030A
S11307300C943F0311240C9484030E94610370F30E
S1130740959FC1F3950F50E0551F629FF001729F72
S1130750BB27F00DB11D639FAA27F00DB11DAA1F81
S1130760649F6627B00DA11D661F829F2227B00DCE
S1130770A11D621F739FB00DA11D621F839FA00D59
S1130780611D221F749F3327A00D611D231F849FA9
S1130790600D211D822F762F6A2F11249F57504000
S11307A09AF0F1F088234AF0EE0FFF1FBB1F661F7B
S11307B0771F881F91505040A9F79E3F510580F044
S11307C00C9439030C9484035F3FE4F3983ED4F310
S11307D0869577956795B795F795E7959F5FC1F7E8
S11307E0FE2B880F911D9695879597F90895F89497
S10507F0FFCF35
S10507F20400FD
S9030000FC
